S017000074776F666F75726269745F61646465722E6D6F74B6
S113000000400020B50400001D0500001D0500008F
S11300101D0500001D0500001D0500000000000076
S11300200000000000000000000000001D050000AA
S11300301D050000000000001D0500001D05000056
S11300401D0500001D0500001D0500001D05000024
S11300501D0500001D0500001D0500001D05000014
S11300601D0500001D0500001D0500001D05000004
S11300701D0500001D0500001D0500001D050000F4
S11300801D0500001D0500001D0500001D050000E4
S11300901D0500001D0500001D0500001D050000D4
S11300A01D0500001D0500001D0500001D050000C4
S11300B01D0500001D0500001D0500001D050000B4
S11300C01D0500001D0500001D0500001D050000A4
S11300D01D0500001D0500001D0500001D05000094
S11300E01D0500001D0500001D0500001D05000084
S11300F01D0500001D0500001D0500001D05000074
S1130100812900001D0500001D0500001D050000DB
S11301101D0500001D0500001D0500001D05000053
S11301201D0500001D0500001D0500001D05000043
S11301301D0500001D0500001D0500001D05000033
S11301401D0500001D0500001D0500001D05000023
S11303F01D0500001D0500001D050000FFFFFFFF97
S1130400FFFFFFFFFFFFFFFFFFFFFFFFFE7FFFFF79
S1130410044B05481B1A062B02D9044B03B1184799
S1130420704700BFC798FF1FC498FF1F000000005B
S113043005490648091A891001EBD171491002D007
S1130440034B03B118477047C498FF1FC498FF1F9C
S11304500000000010B5064C237843B9FFF7D8FF1D
S1130460044B13B10448AFF300800123237010BD83
S11304700000002000000000C442000008B5084B42
S11304801BB108490848AFF300800848036813B952
S1130490BDE80840CCE7064B002BF9D09847F7E7B6
S11304A00000000004000020C4420000C098FF1FA8
S11304B00000000072B64FF000014FF000024FF050
S11304C000034FF000044FF000054FF000064FF01A
S11304D00007B846B946BA46BB46BC460A490B4A69
S11304E0521A013A05DD0020042308601944043A35
S11304F0FBDA07488546074880470748804762B6C5
S113050002F06CFAFEE700000090FF1F004000209C
S113051000400020F137000019370000FFF7FEBF4C
S1130520074B5B69DBB2042B06D0802B06D0012B72
S11305300CBF01200420704702207047032070473D
S113054000E00740044BD3F8003113F0807F1ABF5A
S1130550024B186800207047004006404400002009
S113056010B584B00B4600293BD0444AD2F8002190
S113057012F0007F7DD1414AD2F8001121F400012C
S1130580C2F800114FF08061C2F8001100213C4A0A
S11305901160002870D05A7A120202F4E062197ACB
S11305A001F007010A433548C0F80421DA79120141
S11305B002F030029979C90001F008010A4359791F
S11305C0890001F004010A43C0F808211A79012ABC
S11305D029D0E2B1022A32D01A68294B1A60294C78
S11305E03BE000238DF804308DF80C3001228DF8A7
S11305F008208DF809208DF805208DF80630022397
S11306008DF8073004AB204A43F8102DADE71A7B70
S1130610002A14BF4FF40002002242F001021749DD
S1130620C1F80021D8E71A7B002A14BF4FF4000256
S1130630002242F001121149C1F80021CCE71A7BD3
S1130640002A14BF4FF403024FF4403242F0010277
S11306500A49C1F80021BFE7013CFFF773FF18B94D
S1130660002CF9D1032005E0002C14BF0020032046
S113067000E0022004B010BD0020FBE7004006406B
S11306804400002088E7300000127A00084BD3F8B9
S1130690003213F0807F09D0054BD3F8083203F001
S11306A00103002B034808BF002070470020704757
S11306B00040064000127A0010B582B00B460029B3
S11306C038D02D4AD2F8002212F0007F4FD12A4AA6
S11306D0D2F8001221F40001C2F800120021C2F87D
S11306E00012002846D09A78120202F4E062597887
S11306F001F007010A432049C1F804221A7802F0E4
S11307000102C1F8082259799A791B79002B14BF88
S113071003230123002914BF042100210B43002AD1
S113072014BF4FF4000200221343134AC2F80032EC
S1130730642410E000238DF8043001228DF8052094
S11307408DF806308DF801208DF8022002AB03F8F5
S1130750082DB6E7013CFFF799FF18B9002CF9D131
S1130760032005E0002C14BF0020032000E0022039
S113077002B010BD0020FBE700400640054BD3F853
S1130780003313F0807F1DBF024BD3F808330248B7
S11307900020704700400640006CDC0210B582B0B7
S11307A00B46002932D0294AD2F8002312F0007FE8
S11307B047D1264AD2F8001321F40001C2F80013ED
S11307C04FF08061C2F8001300283DD09A781202DD
S11307D002F4E062597801F007010A431B49C1F8A9
S11307E004231A7802F00302C1F808239A795B798A
S11307F0002B14BF01230923002A14BF4FF4000265
S113080000221343C1F8003364240EE001238DF861
S1130810053000228DF806208DF801308DF8023065
S113082002AB03F8082DBEE7013CFFF7A7FF18B998
S1130830002CF9D1032005E0002C14BF0020032074
S113084000E0022002B010BD0020FBE7004006409B
S113085008B50F4BD3F8003613F0807F02D1002384
S1130860184608BDFFF76EFE03460028F8D0084975
S1130870D1F80826C2F302220132B0FBF2F3D1F818
S11308800826C2F30442103203FB02F35B08E7E7D5
S11308900040064010B584B00C4699B13D4BD3F8E6
S11308A0003613F0007F72D13A4BD3F8002622F4BD
S11308B00002C3F800264FF08062C3F80026A0B9F6
S11308C0002065E000238DF804308DF80B30012200
S11308D08DF808208DF809208DF8053007228DF851
S11308E006208DF8073001ACD8E7FFF72BFE6379BB
S11308F01B0203F4E063227902F007021343254943
S1130900C1F8043663781B0203F4E063A27812048E
S113091002F4F8121343C1F808362378012B16D0D9
S11309204BB1022B1FD04FF47A74FFF791FF48BBF1
S113093034B3013CF9E7E379002B14BF4FF400030F
S1130940002343F00103134AC2F80036EBE7E379CE
S1130950002B14BF4FF40003002343F001130D4A8E
S1130960C2F80036DFE7E379002B14BF4FF403032A
S11309704FF4403343F00103064AC2F80036D2E78D
S1130980032005E0002C14BF0020032000E0022017
S113099004B010BD004006402DE9F04180460D46EC
S11309A08C7801344E7806FB04460F7807FB044725
S11309B0CB78013B052B1CD8DFE803F00312151B91
S11309C01B18FFF7BFFD0009B8F1020F4AD0B8F1B8
S11309D0030F7CD0B8F1010F0DD00020BDE8F081E9
S11309E0FFF754FEEFE7FFF7C9FEECE7FFF730FF30
S11309F0E9E70020E7E7EA7802EB42015D4B53F8B0
S1130A0021301B0904FB03F4A04200F298800B463A
S1130A10584901EB83035B681B0906FB03F6B042EC
S1130A2000F2908002EB420301EB83039B681B09F5
S1130A3007FB03F7B84200F28880AB781B0403F489
S1130A407023120602F0706213432A7802F00F0238
S1130A5013436A781201D2B21343474A5361002008
S1130A60BDE8F081EA7802EB4201424B03EB8103DB
S1130A705B6D1B0904FB03F4A04269D80B463D4996
S1130A8001EB83039B6D1B0906FB03F6B04262D89E
S1130A9002EB420301EB8303DB6D1B0907FB03F746
S1130AA0B8425BD8AB781B0403F47023120602F03F
S1130AB0706213432A7802F00F0213436A7812011A
S1130AC0D2B213432C4A93610020BDE8F081EB7845
S1130AD003EB4301274A02EB8102D2F8A820120952
S1130AE004FB02F4A0423CD80A46224901EB8202EC
S1130AF0D2F8AC20120906FB02F6B04234D803EB5C
S1130B00430201EB8202D2F8B020120907FB02F77C
S1130B10B8422CD8AA78120402F470221B0603F0FF
S1130B20706313432A7802F00F0213436A781201A8
S1130B30D2B21343104AD3610020BDE8F0810120F2
S1130B40BDE8F0810120BDE8F0810120BDE8F0811D
S1130B500120BDE8F0810120BDE8F0810120BDE85D
S1130B60F0810120BDE8F0810120BDE8F081012081
S1130B70BDE8F081944000000040064038B50546C9
S1130B80FFF7CEFC2946FFF707FF044658B9E8787B
S1130B900A220849013A0B69C3F30363984204D05B
S1130BA0002AF7D10324204638BD002A08BF0324B5
S1130BB0F9E700BF0040064010B504461B4B1B6913
S1130BC0C3F30363013B052B1DD8DFE803F00313D4
S1130BD0161C1C19FFF7B6FC144B1B69C3F3034323
S1130BE00133B0FBF3F0012C0FD0ECB1022C14D084
S1130BF0002010BDFFF74AFDEEE7FFF7BFFDEBE76E
S1130C00FFF726FEE8E70020E6E7084B1B69C3F37D
S1130C1003130133B0FBF3F010BD044B1B6903F065
S1130C200F030133B0FBF3F010BD00BF00400640DA
S1130C3008B50F4B1B6AC3F30363062B15D8DFE813
S1130C4003F004080B0E141411000220FFF7B4FF84
S1130C5008BDFFF777FC08BDFFF718FD08BDFFF7D7
S1130C608DFD08BDFFF7F4FD08BD002008BD00BFE1
S1130C700040064008B541B1012931D000200246A8
S1130C8010B1431E22FA03F008BD0438032852D8D9
S1130C90DFE800F00B02141DFFF770FD0246294B3C
S1130CA0D3F8040300F00700EAE7FFF7EFFC02467D
S1130CB0244BD3F8040200F00700E1E7FFF742FCFD
S1130CC00246204BD3F8040100F00700D8E7FFF7F1
S1130CD0BFFD02461B4BD3F8040600F00700CFE724
S1130CE0043803282AD8DFE800F00B02141DFFF7AC
S1130CF045FD0246134BD3F80403C0F30220BFE7BB
S1130D00FFF7C4FC02460F4BD3F80402C0F30220E1
S1130D10B6E7FFF717FC02460A4BD3F80401C0F309
S1130D200220ADE7FFF794FD0246064BD3F8040614
S1130D30C0F30220A4E700200246A1E700200246F7
S1130D409EE700BF0040064008B5114B1B69C3F382
S1130D500113032B19D8DFE803F002071013002155
S1130D600620FFF787FF08BD094B186900F0020051
S1130D70002818BF4FF4FA4008BD064B186808BD98
S1130D8000210520FFF776FF08BD002008BD00BF45
S1130D900080044048000020114B1B69C3F3810309
S1130DA0022B07D0032B0ED0002B0CBF4FF4FA30CC
S1130DB0002070470A4B186900F00200002818BF91
S1130DC04FF4FA407047064B186910F0020006D041
S1130DD0186900F00100002818BF4FF47A707047BA
S1130DE00080044008B5244B5B6813F4006F40D0C6
S1130DF0214B5B68C3F303130E2B09D8DFE803F020
S1130E000A080D081208171C20252F0829082C0091
S1130E10002026E0FFF70CFF23E001210620FFF766
S1130E2029FF1EE001210420FFF724FF19E001211E
S1130E300520FFF71FFF14E00020FFF7BDFE10E0C0
S1130E4001210720FFF716FF0BE00120FFF7B4FE96
S1130E5007E0FFF7A1FF04E0FFF776FF01E04FF49E
S1130E60FA30054B5B68C3F302230133B0FBF3F0A4
S1130E7008BD002008BD00BF0080044010B50C462A
S1130E8015380E2800F2A380DFE800F008131E29AD
S1130E90333D414B5D6A737E87909900584BDB6804
S1130EA0C3F30163022B00F29D80564A52F82330AB
S1130EB022E0534BDB68C3F38163022B00F294807E
S1130EC0504A52F8233017E04D4BDB68C3F30173EB
S1130ED0022B00F28B804B4A52F823300CE0484B33
S1130EE0DB689B0F022B00F28380464A52F82330C2
S1130EF002E0FFF777FF03460020002B6AD0002CA6
S1130F007CD0236010BDFFF71FFF0346F4E73E4B80
S1130F109B78DB0901D00023EEE7FFF73DFF034692
S1130F20EAE7394B9B78DB0964D1354B1B6913F035
S1130F300203E1D0324B1B6903F00103002B18BFFD
S1130F404FF47A73D8E7304B9B78DB0954D12C4BA0
S1130F501B6903F00203002B18BF4FF4FA43CBE7DD
S1130F60294B9B78DB09002B14BF00234FF4FA3381
S1130F70C2E7234B1B6CC3F3001383B30120FFF7B9
S1130F801BFE03460020B8E71D4B1B6CC3F3C003D4
S1130F90002BF3D14FF48070B1E7194B1B6CC3F3F2
S1130FA08003002BEAD14FF48070A8E7144B1B6C2C
S1130FB0C3F34003002BE1D14FF480709FE7104B43
S1130FC01B6C13F00103D9D14FF4807097E7042010
S1130FD0002392E7042818BF4FF480708FE74FF482
S1130FE080708CE7002387E7002385E7002383E7ED
S1130FF0002381E700237FE700237DE710BD00BFC6
S1131000008004404C00002000D0074030B583B07D
S1131010002301932F4B03EB4003B3F8FC309B00F8
S113102003F1804303F5CA231D68C5F3C0051C689A
S113103004F00704AC4219D31A6812F0804F15D09B
S11310401B68C3F30263013B052B21D8DFE803F0DF
S113105003111620201B0620FFF70CFE019001341B
S1131060019BB3FBF4F405FB04440194019803B021
S113107030BD0420FFF7FEFD0190F0E70520FFF7E7
S1131080F9FD0190EBE70720FFF7F4FD0190E6E797
S11310903C3803281BD8DFE800F002080E1401A92D
S11310A01520FFF7EBFE0024D9E701A91620FFF76E
S11310B0E5FE0024D3E701A91720FFF7DFFE002493
S11310C0CDE701A91820FFF7D9FE0024C7E70024C3
S11310D0C5E700BF9440000030B583B00546FFF774
S11310E0B7FB88B1062D56D006238DF807300223AE
S11310F08DF8063001238DF8053002A800F8043D70
S1131100FFF73CFD044600E00124FFF737FB10B174
S1131110032D4AD074B9FFF715FA10B1012D4DD043
S1131120D4B9FFF7B3FA10B1022D00D01CBB20468E
S113113003B030BD03238DF8073000228DF806205C
S113114001228DF8052002A800F8043DFFF716FDE2
S11311500446E0E70124E3E701238DF80730002289
S11311608DF806208DF8053002A800F8043DFFF73D
S113117005FD0446D5E702238DF8073000238DF8DA
S113118006308DF8053002A8012300F8043DFFF76E
S1131190F5FC0446CBE7FFF7F1FA0028CAD1FFF7C4
S11311A0D1F90028D6D10124BBE7FFF7CBF90028F9
S11311B0B6D1FFF76BFA0028B8D1B8E7FFF766FAA3
S11311C00028B3D1B3E7174B1B69C3F30363013B97
S11311D0052B06D8DFE803F0031D200505230123B2
S11311E0C37010490A69104BC2F303121A4492F8EF
S11311F09C2142700A69C2F303421A4492F89C216A
S113120082700A6902F00F02134493F89C31037050
S113121070470223C370E4E70323C370E1E70623A6
S1131220C370DEE7004006409440000001383F28C8
S11312302DD8DFE800F02A282C262C2C2C242C2C4A
S11312402C2C2C2C2C222C2C2C2C2C2C2C2C2C2CE4
S11312502C2C2C2C2C202C2C2C2C2C2C2C2C2C2CD6
S11312602C2C2C2C2C2C2C2C2C2C2C2C2C2C2C2CBA
S11312702C2C2C2C2C2E0620704705207047042083
S113128070470320704702207047012070470020F8
S1131290704707207047F0B5A5B028B3044606464A
S11312A0002800F0FF80C54B1B69C3F30363032BC5
S11312B000F0C680FFF762FA002800F0B88003232C
S11312C08DF8073000228DF8062001228DF80520C4
S11312D024A800F88C3DFFF751FC0546002800F0D7
S11312E0AF80284625B0F0BD01238DF80B300022D5
S11312F08DF80C208DF80D308DF80E208DF8083007
S11313008DF809308DF80A308DF816308DF81430C8
S11313108DF815208DF80F208DF810308DF81130D0
S11313208DF838300D928DF82530A54906918DF849
S11313301C208DF824208DF81D308DF81E200220ED
S11313408DF81F008DF820308DF821308DF8303065
S11313508DF828208DF82F208DF829200C218DF868
S11313602A108DF82B208DF82C308DF82D308DF827
S11313703D3003218DF83C108DF84B308DF8411031
S11313808DF840208DF83F308DF83E308DF84500C3
S11313908DF844308DF843208DF8421006208DF8E6
S11313A049008DF848208DF847308DF8461085495E
S11313B02291202121918DF84C308DF84D208DF80B
S11313C04E208DF84F208DF850308DF854308DF824
S11313D053308DF852208DF851208DF878308DF8E7
S11313E079308DF87A308DF87B308DF87C308DF83B
S11313F07D308DF883308DF85830179218921992F9
S11314001A921B921C921D928DF87E308DF87F30BB
S11314108DF880208DF881208DF882208DF88C3015
S11314208DF88D308DF88E2002AE34463BE70021D6
S11314300120FFF7B3F9054600287FF452AF3EE7D9
S11314403146E078FFF738F90546002800F0C280FD
S1131450FFF766F8022800F0F780032800F0F78011
S1131460012800F0D180002D7FF43BAF0022564BC1
S11314701A6094F8303013B1E26A534B1A6094F84E
S1131480353053B14D490A6A22F0706294F8343011
S11314901B0603F0706313430B6294F84330002B74
S11314A040F0338194F84430E3B194F8455094F813
S11314B0463094F847204549486820F40060486065
S11314C0496821F47F61002D14BF4FF400600020AF
S11314D01B01DBB2120202F4E06213430B43034329
S11314E03A4A536094F84830DBB194F84A3094F89F
S11314F049203649096921F03F0194F84C00014321
S113150094F84B00002814BF022000209B0003F035
S11315100C030B43120102F03002134303432B4A22
S1131520136194F87030002B37D0284B196C21F0DC
S1131530010194F871200A431A641B6C23F002031E
S113154094F87220002A14BF0222002213431F4A77
S11315501364136C23F0040394F87320002A14BF5B
S1131560042200221343194A1364136C23F0080362
S113157094F87420002A14BF082200221343134A4B
S11315801364136C23F0100394F87520002A14BF1D
S11315901022002213430D4A136494F85030002B98
S11315A000F000810A4B626D1A60A26D5A60E26D10
S11315B09A6004F160000121044DCBE00040064034
S11315C000127A000094FF1F4800002000800440AD
S11315D04C00002004F11001607FFEF7C1FF0546B6
S11315E000287FF435AF04F1200194F82800FFF7B8
S11315F051F90546FEF794FF022825D0032826D08A
S1131600012801D0002601E004F13606002D7FF404
S11316102AAFF378032B1DD08DF80730B3788DF8FB
S1131620063073788DF80530337824A800F88C3DA3
S1131630FFF7A4FA054600287FF415AFE11DA07B4F
S1131640FFF7ACF805460EE704F13A06DEE704F1CD
S11316503E06DBE794F828300BBB637F93BBE3784B
S1131660002B42D10125002D7FF4FDAEE11DA07BAE
S1131670FFF794F8054600287FF4F5AEF3788DF86B
S11316800730B3788DF8063073788DF805303378E9
S113169024A800F88C3DFFF771FA0546E3E606231B
S11316A08DF8073002238DF8063001238DF80530BC
S11316B024A800F88C3DFFF761FA0546637F7BB1EF
S11316C00128D0D101238DF8073000228DF806209F
S11316D08DF8053024A800F88C3DFFF74FFA054635
S11316E0E378002BBFD0012DBDD102238DF8073044
S11316F000238DF806308DF8053024A8012300F866
S11317008C3DFFF73BFA0546ADE704F136010120B5
S1131710FFF742F9054600287FF4E3AD04F13A01EE
S11317200220FFF739F9054600287FF4DAAD04F109
S11317303E010320FFF730F9054600287FF4D1ADC0
S1131740B0E626F040761B0603F040733343EB60AB
S11317500131C9B250F8043BEE684A1ED2B2032AE2
S113176000F2A18001A757F822F000BF4317000040
S11317707D1700008B1700009917000026F04066C3
S11317809B0603F040633343E1E726F040561B0712
S113179003F040533343DAE726F0404646EA8373C6
S11317A0444AD36094F87630EBB1424A936E0020F9
S11317B09066516821F4805194F878301B0303F447
S11317C080530B435360906694F877305BB194F880
S11317D079305B0003F00E0394F87A2042F08052D3
S11317E01343344A936614F17C0F3DD0D4F880300F
S11317F0002B39D0E36F002B36D000212E482F4D1B
S113180001EB8102D4F880309B5C00EB4303B3F816
S1131810FC309B0003F1804303F5CA231E6826F0C5
S113182080461E60D4F880309F189E5CBB781B06EF
S113183003F0E063FA78D20002F0080213433A7925
S113184002F0070213437A78002A14BF4FF0804253
S11318500022134300EB4606B6F8FC2045F822307C
S11318600131E36F9942CBD394F8843003B3144924
S11318708B7803F07F0394F8852082F0010243EA19
S1131880C213DBB28B7094F98630002BBCBF2033BB
S11318905BB20B490A7903F01F0302F0E002134321
S11318A00B7100251DE5EE6003297FF651AF79E742
S11318B0002516E5008004409440000000500640D6
S11318C000D0074070B504460D46112807D92328D7
S11318D040F285804D2840F28580042070BD112897
S11318E07AD8DFE800F00913191F24292E33383C75
S11318F041484F565D646B720020FFF75DF9034663
S11319000020002D00F0D9802B6070BD0120FFF76E
S113191053F903460020F4E70220FFF74DF903468C
S11319200020EEE7FFF75EFA03460020E9E7FEF742
S1131930ADFE03460020E4E7FEF720FF0346002047
S1131940DFE7FEF7FFFD03460020DAE7FEF780FF3E
S113195003460020D5E7594B1B680020D1E7FFF769
S113196067F903460020CCE700210420FFF782F941
S113197003460020C5E701210420FFF77BF9034655
S11319800020BEE700210520FFF774F9034600207C
S1131990B7E701210520FFF76DF903460020B0E702
S11319A000210620FFF766F903460020A9E701217C
S11319B00620FFF75FF903460020A2E70021072075
S11319C0FFF758F9034600209BE701210720FFF7A2
S11319D051F90346002094E70023042091E7FFF720
S11319E04DFA70BD242805D804200023002D64D0AE
S11319F02B6070BDA0F13303DBB21A2B07D8304A39
S1131A0022FA03F313F0010F18BF0420EDD12D4B7C
S1131A1003EB4403B3F8FC202B4B53F8223013F0B0
S1131A20804F37D14FF48070DFE70120FFF7C4F80F
S1131A30034600283CD100234FF48070D6E70020F1
S1131A40FFF7BAF803460028F5D031E00220FFF78B
S1131A50B3F803460028EED02AE016F0080F06D1AA
S1131A6016F0100F0BD100234FF48070BEE7002155
S1131A702046FFF7CBFA034616F0100F04D00121DD
S1131A802046FFF7C3FA0346002B14BF00204FF48F
S1131A908070ABE70B4B234493F8AC6116F0200F36
S1131AA0C3D116F0400FCAD116F0800FCED1002357
S1131AB016F0180FD1D1002098E770BD480000201F
S1131AC041210004944000000050064070B582B0EB
S1131AD004460D4689B1554B234493F8AC3113F0B9
S1131AE0010F63D113F0180F30D06A78043A032A37
S1131AF05AD8DFE802F02325272901238DF8003086
S1131B00FEF7C4FD48B104238DF801300123ADF87C
S1131B100230ADF804306D46DDE7FEF72FFE08B164
S1131B200523F1E7FEF794FE08B10723ECE7FEF77F
S1131B3009FD002814BF06234F23E5E7022206E02F
S1131B40032204E0012202E0062200E0002213F056
S1131B50040F1ABFAE8806F1FF36002613F0020FF9
S1131B601ABF698801F1FF310021304B03EB4404B3
S1131B70B4F8FC40A30003F1804303F5CA231868BA
S1131B8020F0804018602B7863B1120642F0804246
S1131B9006F007063243C90001F008010A43244B4A
S1131BA043F8242002B070BD0022D0E72B781F3CFC
S1131BB0042CF7D8DFE804F02E22160A03001D498E
S1131BC00A6C22F0010213430B64EBE7194A126C0E
S1131BD022F00202002B14BF022300231343154AF0
S1131BE01364DFE7134A126C22F00402002B14BFC3
S1131BF00423002313430F4A1364D3E70D4A126CE2
S1131C0022F00802002B14BF082300231343094ABF
S1131C101364C7E7074A126C22F01002002B14BFAA
S1131C20102300231343034A1364BBE794400000CA
S1131C30005006400080044070B582B005460C4652
S1131C40FEF76EFC06469DB12B68022B0ED0042BCA
S1131C5010D0012B0CBF012504256CB12378043B63
S1131C60032B56D8DFE803F0574F51530225F4E70E
S1131C700546F2E70325F0E7FEF780FD58B103239C
S1131C808DF8073000228DF8062001228DF80520FA
S1131C908DF8043055E0FEF7DBFD58B106238DF8CE
S1131CA0073002238DF8063001238DF805308DF8B6
S1131CB0043046E0FEF746FC50B101238DF80730AE
S1131CC000228DF806208DF805308DF8043038E0B8
S1131CD0FEF7DCFCA8B302238DF807309D4208D040
S1131CE000238DF806308DF8053001238DF804307B
S1131CF027E001238DF8063000238DF805300323F7
S1131D008DF804301DE0032306E0012304E00623DC
S1131D1002E0FF2300E002238DF807300F4B6288B6
S1131D201A4492F8FC218DF80620A2881A4492F8ED
S1131D30FC218DF80520E288134493F8FC318DF8DA
S1131D400430B54205D001A92846FEF725FE02B0AD
S1131D5070BD01A8FEF712FFF9E700BF9440000030
S1131D60154B1B69C3F30363013B052B20D8DFE844
S1131D7003F00316191F1F1C062303700E4A136970
S1131D80C3F30343013343801369C3F303130133E0
S1131D908380136903F00F030133C3807047042366
S1131DA00370EBE705230370E8E707230370E5E717
S1131DB004230370E2E700BF004006402DE9F04130
S1131DC086B004460D4631B38889FFF72FFA804662
S1131DD0E889FFF72BFA07462E78201F172800F210
S1131DE03881DFE810F01C0057008F00E400360152
S1131DF03601360136013601360136013601360127
S1131E003601360136013601360136013601360116
S1131E10360136011C010127B8463E46DDE78E4BEC
S1131E201B69C3F30363022B1FD0002465B3012392
S1131E308DF80D308DF80C3000228DF80E208DF8C1
S1131E4009808DF80A7006A901F8103D3046FEF7A6
S1131E5033FC0346002B40F0E980002C00F0E680C0
S1131E6001A8FEF78BFE0346E0E00EB90123DDE096
S1131E7001A8FFF7A8F90220FFF72EF9034600286E
S1131E8040F0D4803446D1E700210120FEF714FC51
S1131E900346DFE7704B1B69C3F30363032B1CD0BA
S1131EA000244DB300238DF80E308DF809808DF891
S1131EB00A708DF808308DF80D3002A93046FEF70F
S1131EC06DFC0346002B40F0B180002C00F0AE8086
S1131ED001A8FEF753FE0346A8E00EB90123A5E0CE
S1131EE001A8FFF770F90320FFF7F6F8034600286E
S1131EF040F09C803446D4E700213046FEF74EFC87
S1131F000346DFE7544B1B69C3F30363012B2FD054
S1131F100024002D3AD06B68029300228DF80C2027
S1131F208DF814208DF810808DF811706A78012ACC
S1131F3014BF002201228DF80D2000228DF80E20FE
S1131F40A3F57412A2F5106244498A4224D80223EC
S1131F508DF80F3002A93046FEF702FB0346002B32
S1131F6064D1002C62D001A8FEF708FE03465DE0B0
S1131F700EB901235AE001A8FFF725F90120FFF764
S1131F80ABF80346002851D13446C2E7002130465D
S1131F90FEF7E6FA0346E2E7A3F5F403A3F590534C
S1131FA02F4A93429CBF03238DF80F30D2E72A4B6C
S1131FB01B69C3F30363062B1ED000244DB3002317
S1131FC08DF808308DF80F308DF80C808DF80D7079
S1131FD0AB7A013B8DF809302B7A103B8DF80A302F
S1131FE002A93046FEF756FC0346FBB9F4B101A83A
S1131FF0FEF7C4FD034619E00EB9012316E001A85B
S1132000FFF7E1F80620FFF767F8034670B9344696
S1132010D4E700213046FEF73DFC0346E5E74EB920
S1132020104A937843F0800393700023184606B057
S1132030BDE8F0810C4A136923F03F0343F0030326
S1132040136102F55432937803F07F0393700023F5
S1132050ECE70023EAE700BF0040064000093D002A
S11320600048E80100D007400080044010B4054C4B
S113207020602171A2602373637300205DF8044B18
S1132080704700BF1C000020F0B583B007460E4621
S11320908DF804008DF8051000F0CEF8334B1C7B4E
S11320A05C7301238DF80630002C4AD000242F4D98
S11320B004E00134E4B22B7BA34242D9AB6853F869
S11320C02430002BF5D01A79022AF2D01A689968C4
S11320D001A890470028ECD06C73002EE9D140F29F
S11320E0031500238DF80630A400204E20E00134AF
S11320F0E4B23B7BA34212D9BB6853F82430002BD3
S1132100F5D01A79012AF2D01A68996801A8904783
S11321100028ECD07C73002EE9D14FF4827500F0D6
S11321207DF8284603B0F0BD043C14F1040FF6D04A
S1132130B3681B59002BF7D01A68996801A8904717
S1132140F2E70A4D2B6853F82700FFF7A4F86F71E4
S113215005460028C5D102238DF80630034B1B7BAE
S1132160002BDCD00024014FC6E700BF1C00002078
S1132170014B5879704700BF1C000020054B5A7B67
S11321801B79934283BF034B9B6853F822000020C2
S1132190704700BF1C00002008B5FFF793FB08BD83
S11321A008B5FFF778F808BD10B40B4B0B4C9C42F4
S11321B00DD02AB100F11003084C54F823301360F9
S11321C01030064B43F820105DF8044B7047044B65
S11321D0044C9C42F8D1ECE7000000000090FF1F83
S11321E0B4470000F0420000420900F01F00012340
S11321F003FA00F0014B43F82200704700E100E0CD
S1132200430900F01F00012202FA00F02033024AC1
S113221042F82300704700BF00E100E0054B1B6853
S1132220002B04DD013B034A1360002B00DD7047E3
S113223062B6FCE72C00002072B6024A1368013330
S1132240136070472C000020002808DB0901C9B284
S113225000F1604000F5614080F800137047C0B29F
S1132260C0F38102012A0DD010B40A4C0A4B022A91
S113227018BF234600F003000901C9B219545DF8E0
S1132280044B7047054B00F003000901C9B219540F
S1132290704700BF20ED00E01CED00E018ED00E009
S11322A0002807DB00F1604000F5614090F800036E
S11322B000097047C0B2C0F38102012A09D006495F
S11322C0064B022A18BF0B4600F00300185C0009F5
S11322D07047034BF8E700BF20ED00E01CED00E081
S11322E018ED00E0430900F01F00012202FA00F09B
S11322F06033024A42F82300704700BF00E100E067
S1132300430900F01F00012202FA00F04033024AA0
S113231042F82300704700BF00E100E04309403366
S1132320044A52F8233000F01F0023FA00F000F0B2
S11323300100704700E100E043098033044A52F889
S1132340233000F01F0023FA00F000F00100704772
S113235000E100E000230370437070470023037022
S113236001224270044941600372C36003744374E0
S11323708374C3740275704740420F0070B582B015
S113238006460C46264D05EB80014520FFF704FF69
S1132390002002A941F8040DFFF7FEFE55F826209F
S11323A0019B03EB5203B3FBF2F213461D48816811
S11323B041F0020181602AB1013B00BF00BF00BFB0
S11323C0002BF9D117498B6823F002038B60134665
S11323D0886840F0010088602AB1013B00BF00BF5B
S11323E000BF002BF9D121780E4B9A6822F0080225
S11323F09A609A68002914BF082300231A43094BE2
S11324009A6061789A6822F004029A609B680029B5
S113241014BF042200221343024A936002B070BD29
S11324203000002000700340024A936823F0010347
S11324309360704700700340024A53691943516125
S1132440704700BF00700340024A936919439161C9
S1132450704700BF00700340F8B506460C461746A7
S1132460244D05EB80014520FFF796FE55F8260024
S1132470214A0023A0FB070101F008FC10F1FF36FC
S113248041F1FF37230103F1804303F55C339B6A79
S1132490C3F38103012B20D0022B24D1012F08BFC9
S11324A0002E12D30120F8BD144A0023BB4208BFFA
S11324B0B24210D3002F08BFB6F5803F05D3B0F168
S11324C0011006044FF6FF721643023424010C4B2C
S11324D01E510020F8BD0120F8BD012F08BF002EB9
S11324E0E2D30120F8BD012F08BF002EEDD3012057
S11324F0F8BD00BF3000002040420F00FEFF010085
S11325000070034030B583B030238DF8043031239C
S11325108DF8053032238DF8063033238DF80730DB
S11325200D4659B9D37C002B40F0AC80564B996AC8
S113253021F002019962996A00230EE0D47C0B0118
S113254003F1804303F55C33996A21F00201996237
S1132550996A002C14BF02230023144619432B014B
S113256003F1804303F55C3399621278996A21F090
S11325700C019962996A920002F00C020A439A6271
S11325806378012B68D06168AB1C1B013E4AD150B3
S1132590227A2B0103F1804303F55C33996A21F419
S11325A000019962996AD20502F400020A439A6210
S11325B0E268996A21F070619962996A120602F0E0
S11325C070620A439A62217C9A6A22F480229A6297
S11325D09A6A002914BF4FF4802300231A432B0165
S11325E003F1804303F55C339A62617C9A6A22F4B6
S11325F000329A629A6A002914BF4FF40033002310
S11326001A432B0103F1804303F55C339A62A17CE6
S11326109A6A22F480329A629A6A002914BF4FF4AB
S1132620803300231A432B0103F1804303F55C3309
S11326309A62237DC3B914490B690122AA4023EA93
S113264002030B6102AB1D4415F9040CFFF7D8FD1E
S11326500023184603B030BD62682946FFF7FCFE2C
S113266003460028F5D193E7074A11690123AB40DB
S11326700B43136102AB1D4415F9040CFFF7B4FDC1
S11326800023E6E70123E4E7007003402DE9F84363
S113269005460E4691461F461A4C04EB8001452020
S11326A0FFF77AFD54F82580174A0023A9FB080197
S11326B001F0ECFA10F1FF3441F1FF35002D08BFB1
S11326C0B4F5803F17D2A7FB08010F4A002301F09D
S11326D0DDFA10F1FF3041F1FF31002908BFB0F5F8
S11326E0803F0BD22204024302363601074B9A5133
S11326F00020BDE8F8830120BDE8F8830120BDE88F
S1132700F88300BF3000002040420F0000700340F7
S1132710F8B506460F46404901EB80014520FFF716
S11327203BFD3E49BB1C1B01C858002501EB0711AA
S11327308B6AC3F38103012B4DD1002D08BFB0F583
S1132740803F27D3020C002380B200218018594116
S11327504C01420144EAD063121A63EB01035C02A8
S113276044EAD25455022A1844EB01039D0145EA78
S113277092659401A21A65EB030380185941264B14
S113278053F826200023264C00250019694101F046
S11327907DFAF8BD441C45F100056901620141EA76
S11327A0D463121B63EB0503590241EAD251500270
S11327B0021941EB0503990141EA92619001801AE3
S11327C061EB0301144B53F82620002300196941DF
S11327D001F05CFAF8BD441C45F100056901620191
S11327E041EAD463121B63EB0503590241EAD25157
S11327F05002021941EB0503990141EA92619001EB
S1132800801A61EB0301044B53F8262000230019BE
S1132810694101F03BFAF8BD30000020007003402C
S113282080841E00F8B506460F462A4901EB800154
S11328304520FFF7B1FC2849BB1C01EB0313586882
S1132840044601EB07118B6AC3F38103012B24D1E6
S1132850020C002380B20021141843EB0105690126
S1132860620141EAD463121B63EB0503590241EA96
S1132870D2515002021941EB0503990141EA9261D8
S11328809001801A61EB0301124B53F826200023B8
S11328900019694101F0FAF9F8BD00254201C30E9F
S11328A0121A63EB0503590241EAD251500202198C
S11328B041EB0503990141EA92619001801A61EBB1
S11328C00301044B53F8262000230019694101F049
S11328D0DDF9F8BD30000020007003400231090129
S11328E0014B5A50704700BF0070034043EA024353
S11328F00231090101484350704700BF0070034092
S1132900074B8A1C1201985803EB01139B6AC3F30B
S11329108103012B04BF83B203EB1040704700BF57
S113292000700340074B8A1C03EB0212506803EB50
S113293001139B6AC3F38103012B04BF83B203EB2E
S11329401040704700700340024A13691943116133
S1132950704700BF00700340024A136923EA010173
S11329601161704700700340014BD86808407047FC
S113297000700340014BD960DB687047007003406E
S113298008B500F09FFF01210020FFF7F3FF08BD09
S113299008B501F03DF808BD08B500F093FF08BD87
S11329A008B50B4A00210846FFF7ACFD0F21302083
S11329B0FFF74AFC002207493020FFF7F5FB064BDE
S11329C0596941F001010020FFF736FD08BD00BF41
S11329D0A4420000812900000070034008B54FF0B4
S11329E0E022D2F8883D43F47003C2F8883DFFF733
S11329F023FC00F0E9FD00F073FE01F009F8FFF795
S1132A000DFCFFF7CDFFFEE760B170B506460C463E
S1132A100025204600F0D2F801351834AE42F8D132
S1132A20002070BD00207047012A0AD012B1022A8A
S1132A3010D0704750F8213023F0020340F82130C1
S1132A40704750F8213023F0010343F0020340F8AB
S1132A502130704750F8213043F0030340F821300F
S1132A60704708B500F034F908BD50F8213023F45C
S1132A707023120402F470221A4340F82120704794
S1132A8050F82100C0F30340704750F8213043F060
S1132A90807340F821307047D0F8C020012303FA36
S1132AA001F11143C0F8C0107047D0F8C0300122C2
S1132AB002FA01F123EA0103C0F8C03070470B7831
S1132AC003F00103C0F8C4304B7803F01F03C0F8CF
S1132AD0C8307047D0F8A00070474FF0FF33C0F8FB
S1132AE0A03070474069704710B4436901248C409A
S1132AF023EA04038A401A4342615DF8044B704799
S1132B0041617047816170478069704708B500F082
S1132B1007F908BD08B500F019F908BD10B4036839
S1132B2001248C4023EA04038A401A4302605DF8BE
S1132B30044B7047016070470068704741607047FC
S1132B4081607047C160704700697047194B9842B3
S1132B5004D0194B984220D0FF207047102927D861
S1132B60DFE801F0090C2626262626262626262618
S1132B70260F1215180042F00100704742F00200BF
S1132B80704742F00400704742F00800704702F0BA
S1132B900E00704702F00D00704719B1012904D0EE
S1132BA0FF20704702F00B00704702F007007047E7
S1132BB0FF20704700A0044000B0044038B504462C
S1132BC00068616850F82120237A012B3FD0002B44
S1132BD03AD0022B40D0657A2D0105F0100322F083
S1132BE050051D43A37A9B0103F040032B4323F4B8
S1132BF0E065E37A082B32D01B0203F4E0632B4335
S1132C00227BD20392B223F478231343627B12040F
S1132C1002F470221343A27B0AB143F0807322684A
S1132C20616842F821302168D1F8C020606801232E
S1132C30834022EA0302E37B83401343C1F8C0309C
S1132C40E37A012B21D038BD22F00202C3E722F03F
S1132C50010242F00202BEE742F00302BBE71B4B53
S1132C605A6802F00F02FFF771FFFF280BD0174BD1
S1132C705A6822F00F025A605A6800F00F0010439D
S1132C8058600023B8E70023B6E721694B69227D29
S1132C9022B1012A0AD0012A05D10BE06168012280
S1132CA08A4023EA020322695361CCE76068012267
S1132CB082401343656808680122AA4020EA0200A2
S1132CC0627DAA4002430A60EDE700BF0080044031
S1132CD070B505460E4650F82140082A08D024F461
S1132CE0E064120202F4E062224345F8262070BD3B
S1132CF00A4B5A6802F00F02FFF728FFFF280BD097
S1132D00064B5A6822F00F025A605A6800F00F000E
S1132D10104358600022E2E70022E0E7008004400C
S1132D2022F4F14222F02C0292B22BB110B4012B06
S1132D3007D05DF8044B704742EA0142C0F8802096
S1132D40704742EA0142C0F88420F2E7120402F418
S1132D5070222BB110B4012B06D05DF8044B7047E0
S1132D600A43C0F8882070470A43C0F88C20F4E76F
S1132D702DE9F04F83B08379012B07D0EBB1022BFF
S1132D8015D001274FF0000B5E4604E0204B1E7B5C
S1132D90022740F2031B00230B70002E2FD0914614
S1132DA00C4680469A461A4DCDF804B011E0184BF3
S1132DB01E7B01274FF4827BEDE7154B1E7B022718
S1132DC040F2031BE7E723780133DBB223709E4212
S1132DD019D9AA6852F82330002BF4D01A79BA42D0
S1132DE0F1D01A689968404690470028EBD02378C0
S1132DF06B73B9F1010F05D1DDF804A0E3E74FF0DF
S1132E00000A00E0DA46504603B0BDE8F08F00BF88
S1132E105800002010B5094C206021710021A173D5
S1132E2032B11146A1602373637300F0EFF810BD53
S1132E30024B00229A601A735A73F6E75800002076
S1132E4008B5044B00221A601A719A601A7300F0D4
S1132E5029F908BD58000020044B9A7B0270587B66
S1132E601B7BC01A18BF0120704700BF5800002008
S1132E70054B1A68997B52F821200260587B1B7B12
S1132E80C01A18BF0120704758000020014B587B1E
S1132E90704700BF58000020054B5A7B1B7B9342B0
S1132EA083BF034B9B6853F822000020704700BF88
S1132EB058000020F0B585B006460C4600238DF876
S1132EC00F301B4B1A6852F820701A7B5A738DF816
S1132ED009108DF80800019701238DF80A300A467D
S1132EE00DF10F0101A8FFF743FF012C01D00546A6
S1132EF088B9384600F0F2F8054660B90C4B9E7369
S1132F0002238DF80A3001220DF10F0101A8FFF709
S1132F102FFF054608E000238DF80A3001220DF149
S1132F200F0101A8FFF724FF284605B0F0BD00BF3C
S1132F30580000200123037000234370704700BF32
S1132F40124BD3F8003623F00103114A12780AB168
S1132F5043F001030D4AC2F80036D2F8003323F0DF
S1132F6001030B4A52780AB143F00103074AC2F83D
S1132F700033D2F8003123F00103054A92780AB1F4
S1132F8043F00103014AC2F8003170470040064093
S1132F9034000020094BD3F8002622F00102C3F8C4
S1132FA00026D3F8002122F00102C3F80021D3F84F
S1132FB0002322F00102C3F80023704700400640BA
S1132FC00378042B1ED000B583B004238DF80030A1
S1132FD00D4A9369C3F303430133ADF80230936997
S1132FE0C3F303130133ADF80430936903F00F0303
S1132FF00133ADF8063069460020FEF71DFE03B02C
S11330005DF804FB002070470040064010B582B014
S113301000238DF805308DF804301D4B1A79CAB1A0
S11330201868031F013AD2B200EB8200012406E0C3
S11330301278022A0BD0052A09D083420AD053F809
S1133040042F11780029F3D18DF80540F0E78DF8AD
S11330500440F2E70F4A937803F0FE03937001A94A
S11330600D4800F0A5FA0D4AD2F800160C4B01F0F9
S113307001011970D2F8001301F001015970D2F85E
S1133080002102F001029A70002002B010BD00BFBE
S11330905800002000D0074000E0074000400640F0
S11330A034000020034A937803F0FE039370002059
S11330B0704700BF00D00740074B5B69DBB2042BAD
S11330C006D0802B06D0012B0CBF012006207047B0
S11330D0022070470020704700E0074030B583B0FD
S11330E00378022B16D90546B04A5269D2B2042A93
S11330F000F0C680102A00F00C81012A00F06381E0
S1133100032B05D3042B40F20D81052B00F0C8805E
S113311004242DE1A54A5269D2B2042A00F0EF80BA
S11331200DD8012A00F02B81022A40F05881022296
S1133130012B55D093B1022B6FD0042418E1102A2F
S113314000F04B81802A40F04A81012B3CD00BB91E
S113315000240DE1022B5DD0042409E102A901231E
S113316001F8083D914800F0A5F90446002840F014
S1133170FF8008E10124FBE0062B02D08C4B5B7836
S113318003B38B4BDB78A3B1FFF7DAFE8949002048
S1133190FEF752FD0446002840F0EA800023844AEA
S11331A0D37002A901F8043D804800F083F9044675
S11331B0DEE002A9002301F8043D7C4800F07AF91E
S11331C00446D5E00124D3E0802300E00423012B4E
S11331D006D1774BDB787BB90024C9E00123F6E7FD
S11331E002A9012301F8083D704800F063F9044680
S11331F0002840F0BD80ECE7FFF7A2FE6D490020F7
S1133200FEF71AFD0446002840F0B2800022684B05
S1133210DA70ADE0802200E00422042A2ED0634B51
S11332205B69DBB2012B0AD002A9012301F8083D36
S11332305E4800F03FF90446002840F099805C4B5A
S1133240DB78BBB15B48FFF7BBFE0446002840F0C7
S11332508F800122564BDA7002AC022304F8083D39
S1133260FFF798FE2146514800F024F904467FE018
S11332700122D2E74F48FEF773FDE3E7002477E02D
S1133280032B3AD3042B07D9052B36D1FFF714FFB0
S1133290012813D000240DE004233FE001233DE086
S11332A002A9012301F8043D404800F003F9044653
S11332B00028EBD005238DF8043044E03C4BDB7848
S11332C073B13C48FFF77CFE04460028F2D101228A
S11332D0374BDA7005238DF80430FFF75BFEE9E71E
S11332E03448FEF73DFDECE74FF0E022D2F8103D04
S11332F023F00203C2F8103D31E0042438E0012B2E
S11333003FF464AF002B3FF429AF022B84D0042494
S11333102EE0032B31D3042B2DD81023012B08BF0F
S1133320002407D002A9012301F8043D1F4800F03E
S1133330C1F804462B788DF80430032B0CBF01230D
S113334002238DF805309CB96B78002BCCD04FF05C
S1133350E022D2F8103D43F00203C2F8103D01A967
S1133360124800F0A7F8041E40F2011318BF1C46CF
S1133370204603B030BD052B92D00424F8E7012B7E
S11333803FF42CAFD3B90C4BDB69C3F30363084A96
S11333901278002A7FF4F0AE054A5278002A3FF4EE
S11333A0E9AE062B7FF4EAAE0124E1E700E0074032
S11333B0340000203800002000400640022B3FF477
S11333C057AF0424D4E7032B05D3042B7FF666AF51
S11333D0052B3FF45BAF0424CAE71022A8E6FF22C2
S11333E0A6E6806801390C2929D8DFE801F0070A2C
S11333F00D28101316191C1F22282500C0F34000A5
S11334007047C0F380007047C0F3C0007047C0F33A
S113341040107047C0F380107047C0F3C01070476D
S1133420C0F300207047C0F340207047C0F38020F1
S11334307047C0F3C0207047C0F34030704700208D
S1133440704700BF2DE9F04180290BD05AB3002406
S11334504FF004084FF0FF0E4FF0100C80270126A8
S113346002250FE06423013BFDD1EFE7102B16D0BA
S1133470802B10D13B4600E02B46994214D00134F6
S1133480A24211D04369DBB2042B06D0EED8012B43
S113349007D0022BF0D07346EFE74346EDE76346CF
S11334A0EBE73346E9E70024A24294BF0020012061
S11334B0BDE8F08108B50B78052B75D8DFE803F07B
S11334C02F0317434343394A937803F0FE03937061
S11334D0C36823F06003C3604FF47A720121FFF7DD
S11334E0B1FF002840F2011018BF002008BD2F4A88
S11334F0937803F0FE0343F001039370C36823F051
S1133500600343F04003C3604FF47A720421FFF771
S113351099FF002840F2011018BF002008BD234A7B
S1133520937803F0FE039370C36843F06003C360B1
S11335304FF47A728021FFF785FF002840F20110D2
S113354018BF002008BD033BDBB2012B22D9174A68
S1133550937803F0FE0343F0010393700223C268DF
S113356022F007021343C3604FF0E022D2F8103D6B
S113357043F00403C2F8103D30BF4369DBB2012BB2
S11335800A4A937803F0FE0318BF43F001039370D3
S1133590002008BD026922F0C0024B789B01DBB217
S11335A0134303610023DAE7042008BD00D0074079
S11335B00B78002B0CBF002320234A780AB143F078
S11335C080038360704700BF30B5A9B006AD882280
S11335D00021284600F0E6FC01248DF818408DF8FF
S11335E019408DF81A408DF81B408DF81D408DF858
S11335F020408DF821408DF824408DF82640314B31
S11336000A938DF82D4003238DF82F308DF8304028
S11336108DF831408DF8354004228DF83A208DF82C
S11336203C408DF83D308DF840408DF848408DF891
S11336304C308DF84D408DF84E308DF84F400622B9
S11336408DF851208DF852308DF8544002218DF8B8
S113365055108DF856308DF857408DF859208DF857
S11336605B408DF85C408DF860408DF861408DF8CA
S113367063408DF864408DF89C408DF89D4005951D
S1133680002528AA42F8905D2B46214605A8FEF79E
S1133690EDFC29462846FEF7F7FC8DF80C408DF822
S11336A00D5003AB029328AA42F89C5D2B46214699
S11336B002A8FFF7AFFB29462846FFF7FBFB29B01A
S11336C030BD00BF00127A00013820F07F40034B68
S11336D0586000229A6007221A60704710E000E0E8
S11336E008B5094B1B7803B908BD0020064B1870B8
S11336F0064BB3F88A204FF08C41054B43F8221057
S11337000449FEF73BFEEFE7A094FF1F9041000041
S113371000500640BC420000264B274A9A4208D07B
S113372013462448254A13F8011B02F8011B98424A
S1133730F9D1234B234A9A4208D013462048224AFF
S113374013F8011B02F8011B8342F9D11F4B204AD5
S11337509A4206D0134600211C4A03F8011B9342E7
S1133760FBD11C4B1C4A9A4208D0134619481B4AE9
S113377013F8011B02F8011B8342F9D1184B194AB3
S11337809A4212D010B4184CA40808D01946002349
S113379051F8040B42F8040B0133A342F8D1134B44
S11337A0104A1A605DF8044B7047104B0C4A1A60BB
S11337B0704700BFB4470000F04200000094FF1FB0
S11337C0B4470000B4470000C498FF1F78000020ED
S11337D000000020B4470000B447000000000020AF
S11337E0000000000090FF1F0004000008ED00E04E
S11337F04FF0E023D3F8882D42F47002C3F8882DEB
S1133800D3F8342F22F08042C3F8342F054B064AF4
S11338105A605A6842F220121A604FF6FF729A6098
S1133820704700BF0020054020C528D91B4B1A69EA
S11338301B69C3F30363013B052B2ED8DFE803F0B8
S113384025030D2D2D12154BD3F8083203F0010377
S1133850002B134918BF0B4618E0104BD3F808335C
S1133860104B13E00D4BD3F80816D3F80836C3F306
S1133870044303F110000A4B03FB00F3C1F30221DC
S113388001314900B3FBF1F300E0054BC2F30342FD
S11338900132B3FBF2F3044A136070470040064060
S11338A000127A00006CDC02A494FF1F4FF0E021A8
S11338B0D1F80C2D92B2024B1343C1F80C3D704762
S11338C00400FA0538B54F4C2046FFF73DF94E4D3C
S11338D0C0F3801028702046FFF736F9C0F3C010FB
S11338E068702046FFF730F9C0F30020A870204626
S11338F0FFF72AF9C0F34020E8702046FFF724F9C7
S1133900C0F3802028712046FFF71EF9C0F3C020C1
S113391068712046FFF718F9C0F30030A8712046FB
S1133920FFF712F9C0F34030E8712C782B791C446E
S11339306B7804EB4304AB7804EB8304EB7804EB7F
S1133940C3046B7904EB4304AB7904EB830404EB09
S1133950C004E4B204F001032B72002B38D001211F
S11339602A48FFF7EBF804F00203002B14BF0122EE
S11339700022254B5A7230D002212448FFF7DEF88A
S113398004F00403002B14BF012200221E4B9A7280
S113399028D004211D48FFF7D1F804F00803002BB8
S11339A014BF01220022184BDA7220D008211748D4
S11339B0FFF7C4F804F01004002C14BF0122002205
S11339C0114B1A7318D110211048FFF7B9F838BDFC
S11339D001210E48FFF7B4F8C5E702210B48FFF7B1
S11339E0AFF8CDE704210948FFF7AAF8D5E7082185
S11339F00648FFF7A5F8DDE710210448FFF79EF815
S1133A0038BD00BF00F10F4068000020C0F00F4037
S1133A102DE9F04387B00025964B1D60964B1D6041
S1133A205D609D601D73DFF85892B9F86260B6005E
S1133A3006F1804606F5CA26336843F080433360B6
S1133A40029503950595DFF83C82CDF800800623A6
S1133A50019301248DF80B408DF80E40874F049795
S1133A6069462046FEF7D0FF336843F08043336055
S1133A70029503950595CDF80080072301938DF8F1
S1133A800B408DF80E40049769462046FEF7BCFFB4
S1133A90336843F080433360029503950595CDF870
S1133AA00080082301938DF80B408DF80E40049795
S1133AB069462046FEF7A8FF336843F0804333602D
S1133AC0029503950595CDF80080092301938DF89F
S1133AD00B408DF80E40049769462046FEF794FF8C
S1133AE0336843F080433360029503950595CDF820
S1133AF000800A2301938DF80B408DF80E40049743
S1133B0069462046FEF780FF336843F08043336004
S1133B10029503950595CDF800800B2301938DF84C
S1133B200B408DF80E40049769462046FEF76CFF63
S1133B30336843F080433360029503950595CDF8CF
S1133B4000800C2301938DF80B408DF80E400497F0
S1133B5069462046FEF758FF336843F080433360DC
S1133B60029503950595CDF800800D2301938DF8FA
S1133B700B408DF80E40049769462046FEF744FF3B
S1133B80B9F86060B60006F1804606F5CA263368C7
S1133B9043F0804333600195029503950595A8F59C
S1133BA08058CDF800808DF80B408DF80E40403FD2
S1133BB004978DF8144069462046FEF725FF3368C4
S1133BC043F080433360029503950595CDF800805A
S1133BD001948DF80B408DF80E4004978DF8144035
S1133BE069462046FEF710FF336843F08043336094
S1133BF0029503950595CDF80080022301938DF875
S1133C000B408DF80E4004978DF814406946204609
S1133C10FEF7FAFE336843F0804333600295039560
S1133C200595CDF80080032301938DF80B408DF8A2
S1133C300E4004978DF8144069462046FEF7E4FED2
S1133C40336843F080433360029503950595CDF8BE
S1133C500080042301938DF80B408DF80E400497E7
S1133C608DF8144069462046FEF7CEFE07B0BDE845
S1133C70F08300BF400000206800002000F10F40E6
S1133C809041000000D00440704700BF53B94AB9C6
S1133C90002908BF00281CBF4FF0FF314FF0FF3050
S1133CA000F07EB9ADF1080C6DE904CE00F006F821
S1133CB0DDF804E0DDE9022304B070472DE9F047A4
S1133CC0089D04468E46002B4ED18A4294466DD9F7
S1133CD0B2FA82F757B1C7F1200EB94020FA0EFEAE
S1133CE002FA07FC4EEA010E00FA07F44FEA1C49F7
S1133CF0210CBEFBF9F61FFA8CF809FB16EE41EA1B
S1133D000E4106FB08F38B420AD91CEB010106F1B4
S1133D10FF3280F027818B4240F22481023E6144CD
S1133D20C91AA4B2B1FBF9F009FB101144EA014429
S1133D3000FB08F8A0450AD91CEB040400F1FF338A
S1133D4080F00E81A04540F20B810238644440EAC1
S1133D500640A4EB080400267DB1FC4000232C603F
S1133D606B603146BDE8F0878B4209D9002D00F025
S1133D701481002685E8030030463146BDE8F0870B
S1133D80B3FA83F6002E40F090808B4202D3824235
S1133D9000F2FD80841A61EB030101208E46002DA0
S1133DA0EBD085E810403146BDE8F0871AB94FF0F2
S1133DB0010CBCFBF2FCBCFA8CF7A7BBA1EB0C0317
S1133DC04FEA1C421FFA8CF80126B3FBF2FE210CC9
S1133DD002FB1E3341EA034108FB0EF38B4208D970
S1133DE01CEB01010EF1FF3002D28B4200F2D180B4
S1133DF08646C91AA3B2B1FBF2F002FB101143EAE2
S1133E00014408FB00F8A04508D91CEB040400F1A8
S1133E10FF3302D2A04500F2B7801846A4EB080491
S1133E2040EA0E4098E7C7F1200301FA07F40CFAC0
S1133E3007FC20FA03FED9404FEA1C424EEA040E66
S1133E40B1FBF2F64FEA1E4302FB16111FFA8CF87F
S1133E5043EA014306FB08F1994200FA07F40AD940
S1133E601CEB030306F1FF3080F08C80994240F292
S1133E708980023E63445B1A1FFA8EF1B3FBF2F0B1
S1133E8002FB103341EA034100FB08F38B4208D9DB
S1133E901CEB010100F1FF3E70D28B426ED9023857
S1133EA06144CB1A40EA06468FE7C6F1200722FA9E
S1133EB007F8B34001FA06F448EA030320FA07FCC2
S1133EC04FEA134EF9404CEA040CB1FBFEF94FEAF9
S1133ED01C440EFB19111FFA83F844EA014109FB43
S1133EE008F48C4202FA06F200FA06FA08D95918C4
S1133EF009F1FF3044D28C4242D9A9F10209194494
S1133F00091B1FFA8CFCB1FBFEF00EFB10114CEAEE
S1133F10014400FB08F8A04507D91C1900F1FF3142
S1133F202AD2A04528D902381C4440EA0940A4EB0F
S1133F300804A0FB02894C45C446494616D313D055
S1133F4055B1BAEB0C0364EB010404FA07F7F34030
S1133F501F43F4402F606C6000263146BDE8F087B3
S1133F601846F4E61646DBE6C245E9D2B8EB020C85
S1133F7069EB03010138E3E70846D6E7704690E7AA
S1133F808146BDE7064676E70238644446E7304694
S1133F9005E7AEF1020E61442BE72E462846ECE617
S1133FA0704700BF02440346934200D1704703F8B0
S1133FB0011BF9E7024B13B1024800F019B870472E
S1133FC000000000C93F000038B5074D074C641BD2
S1133FD0A4101CB9BDE8384000F07AB9013C55F88A
S1133FE024309847F5E700BFEC420000F04200009F
S1133FF0002301461A46184600F000B82DE9F041A6
S11340001F46224B1C680646D4F848010D469046CC
S113401018B904F5A670C4F8480143681F2B16DDCF
S11340201B4B1BB94FF0FF30BDE8F0814FF4C87053
S1134030AFF300800028F5D0D4F8483103600021A4
S11340404160C4F84801C0F88811C0F88C11446874
S11340509EB100EB84030122C3F88880D0F8881154
S1134060A2401143022EC0F88811C3F8087102BFA0
S1134070D0F88C311A43C0F88C21631C023443609D
S113408040F824500020BDE8F08100BFC042000089
S1134090000000000000000000000000000000001C
S11340A000B4C404006CDC02B0F3960100B4C40490
S11340B0006CDC02B0F3960100B4C404006CDC02B2
S11340C0B0F39601000000000000000000000000B2
S11340D000000000000000000000000000B4C40460
S11340E0005A6202B0F396010000000000000000D4
S11340F00000000000093D0000093D0040420F009F
S113410000093D0000093D0040420F0000093D0048
S113411000093D0040420F000000000000000000C4
S1134120000000000000000000000000000000008B
S113413000093D0000093D0040420F00000000005E
S1134140000000000000000000FCAC06007E5603E6
S1134150003FAB0100FCAC06007E5603003FAB0100
S113416000FCAC06007E5603003FAB0100000000DB
S1134170000000000000000000000000000000003B
S11341800000000000FCAC06007E5603003FAB01BB
S1134190000000000000000000000000000000001B
S11341A0000000000000000000000000000000000B
S11341B000000000000000000000000000000000FB
S11341C000000000000000000000000000000000EB
S11341D000000000000000000000000000000000DB
S11341E00000730032002100610049004A004B00C6
S11341F04C004D003D000000240025002B0036003B
S11342003100000020000000380039003A00260088
S113421000003B0027005A00660037002C002D00E8
S11342202E0040006A006B006C00000000000000DB
S1134230000102030405060708090A0B0C0D0E0F02
S1134240000000000000000000000000000000006A
S11342500000000000000000000000000000004119
S11342604141414100000000002020202020202066
S113427020202000404040404000800048484848FA
S113428000303030303030303036303030000000E4
S113429000000102030405060708090A0B0C0D0EB1
S11342A00F00000000010000A086010001000000D2
S11342B001000000000000000100000000010000F7
S11342C0A894FF1FF8B500BFF8BC08BC9E46704711
S10F42D0F8B500BFF8BC08BC9E4670475F
S10B42DCE0F9FF7F010000007E
S10B42E4B53F00007D04000059
S10742EC5504000071
S11342F04101020000420102000029010000002ADD
S1134300010000002B010000002C0100000034011A
S113431000000035010000003601000000430102E6
S113432000003A010000003C010200003D010200CF
S1134330003E010200003F010200004401020000AF
S11343404501020000460102000047010200004846
S11343500102000049010200004A010200004B0171
S11343600200004C01020000370100000038010087
S113437000002D010000002E010000002F010000AC
S11343800030010000003101000000320100000093
S113439001000000006CDC02000000009497FF1F85
S11343A0F897FF1F5C98FF1F00000000000000004A
S11343B000000000000000000000000000000000F9
S11343C000000000000000000000000000000000E9
S11343D000000000000000000000000000000000D9
S11343E000000000000000000000000000000000C9
S11343F000000000000000000000000000000000B9
S113440000000000000000000000000000000000A8
S11344100000000000000000000000000000000098
S11344200000000000000000000000000000000088
S11344300000000000000000000000000000000078
S113444001000000000000000E33CDAB34126DE615
S1134450ECDE05000B00000000000000000000007E
S11344600000000000000000000000000000000048
S11344700000000000000000000000000000000038
S11344800000000000000000000000000000000028
S11344900000000000000000000000000000000018
S10747B00000000001
S90304B543
